{
  "ContractAddress": "0x73511669fd4dE447feD18BB79bAFeAC93aB7F31f",
  "_format": "hh-sol-artifact-1",
  "contractName": "Cert",
  "sourceName": "contracts/Cert.sol",
  "abi": [
    {
      "inputs": [],
      "stateMutability": "nonpayable",
      "type": "constructor"
    },
    {
      "inputs": [
        {
          "internalType": "uint256",
          "name": "",
          "type": "uint256"
        }
      ],
      "name": "Certificates",
      "outputs": [
        {
          "internalType": "string",
          "name": "name",
          "type": "string"
        },
        {
          "internalType": "string",
          "name": "course",
          "type": "string"
        },
        {
          "internalType": "string",
          "name": "grade",
          "type": "string"
        },
        {
          "internalType": "string",
          "name": "date",
          "type": "string"
        }
      ],
      "stateMutability": "view",
      "type": "function"
    },
    {
      "inputs": [
        {
          "internalType": "uint256",
          "name": "",
          "type": "uint256"
        }
      ],
      "name": "CertificatesIssued",
      "outputs": [
        {
          "internalType": "bool",
          "name": "",
          "type": "bool"
        }
      ],
      "stateMutability": "view",
      "type": "function"
    },
    {
      "inputs": [
        {
          "internalType": "address",
          "name": "_admin",
          "type": "address"
        }
      ],
      "name": "addAdmin",
      "outputs": [],
      "stateMutability": "nonpayable",
      "type": "function"
    },
    {
      "inputs": [
        {
          "internalType": "uint256",
          "name": "_id",
          "type": "uint256"
        },
        {
          "internalType": "string",
          "name": "_name",
          "type": "string"
        },
        {
          "internalType": "string",
          "name": "_course",
          "type": "string"
        },
        {
          "internalType": "string",
          "name": "_grade",
          "type": "string"
        },
        {
          "internalType": "string",
          "name": "_date",
          "type": "string"
        }
      ],
      "name": "issue",
      "outputs": [],
      "stateMutability": "nonpayable",
      "type": "function"
    }
  ],
  "bytecode": "0x608060405234801561001057600080fd5b506000339080600181540180825580915050600190039060005260206000200160009091909190916101000a81548173ffffffffffffffffffffffffffffffffffffffff021916908373ffffffffffffffffffffffffffffffffffffffff160217905550610efd806100836000396000f3fe608060405234801561001057600080fd5b506004361061004c5760003560e01c80635bd3d4a01461005157806370480275146100815780639622c8361461009d578063d1e7be26146100d0575b600080fd5b61006b6004803603810190610066919061066c565b6100ec565b60405161007891906106b4565b60405180910390f35b61009b6004803603810190610096919061072d565b61010c565b005b6100b760048036038101906100b2919061066c565b6101ba565b6040516100c794939291906107ea565b60405180910390f35b6100ea60048036038101906100e59190610980565b61040a565b005b60026020528060005260406000206000915054906101000a900460ff1681565b61011533610574565b610154576040517f08c379a000000000000000000000000000000000000000000000000000000000815260040161014b90610ab7565b60405180910390fd5b6000819080600181540180825580915050600190039060005260206000200160009091909190916101000a81548173ffffffffffffffffffffffffffffffffffffffff021916908373ffffffffffffffffffffffffffffffffffffffff16021790555050565b60016020528060005260406000206000915090508060000180546101dd90610b06565b80601f016020809104026020016040519081016040528092919081815260200182805461020990610b06565b80156102565780601f1061022b57610100808354040283529160200191610256565b820191906000526020600020905b81548152906001019060200180831161023957829003601f168201915b50505050509080600101805461026b90610b06565b80601f016020809104026020016040519081016040528092919081815260200182805461029790610b06565b80156102e45780601f106102b9576101008083540402835291602001916102e4565b820191906000526020600020905b8154815290600101906020018083116102c757829003601f168201915b5050505050908060020180546102f990610b06565b80601f016020809104026020016040519081016040528092919081815260200182805461032590610b06565b80156103725780601f1061034757610100808354040283529160200191610372565b820191906000526020600020905b81548152906001019060200180831161035557829003601f168201915b50505050509080600301805461038790610b06565b80601f01602080910402602001604051908101604052809291908181526020018280546103b390610b06565b80156104005780601f106103d557610100808354040283529160200191610400565b820191906000526020600020905b8154815290600101906020018083116103e357829003601f168201915b5050505050905084565b61041333610574565b610452576040517f08c379a000000000000000000000000000000000000000000000000000000000815260040161044990610ab7565b60405180910390fd5b6002600086815260200190815260200160002060009054906101000a900460ff166104b2576040517f08c379a00000000000000000000000000000000000000000000000000000000081526004016104a990610b83565b60405180910390fd5b6040518060800160405280858152602001848152602001838152602001828152506001600087815260200190815260200160002060008201518160000190816104fb9190610d4f565b5060208201518160010190816105119190610d4f565b5060408201518160020190816105279190610d4f565b50606082015181600301908161053d9190610d4f565b5090505060016002600087815260200190815260200160002060006101000a81548160ff0219169083151502179055505050505050565b600080600090505b600080549050811015610617578273ffffffffffffffffffffffffffffffffffffffff16600082815481106105b4576105b3610e21565b5b9060005260206000200160009054906101000a900473ffffffffffffffffffffffffffffffffffffffff1673ffffffffffffffffffffffffffffffffffffffff160361060457600191505061061d565b808061060f90610e7f565b91505061057c565b50600090505b919050565b6000604051905090565b600080fd5b600080fd5b6000819050919050565b61064981610636565b811461065457600080fd5b50565b60008135905061066681610640565b92915050565b6000602082840312156106825761068161062c565b5b600061069084828501610657565b91505092915050565b60008115159050919050565b6106ae81610699565b82525050565b60006020820190506106c960008301846106a5565b92915050565b600073ffffffffffffffffffffffffffffffffffffffff82169050919050565b60006106fa826106cf565b9050919050565b61070a816106ef565b811461071557600080fd5b50565b60008135905061072781610701565b92915050565b6000602082840312156107435761074261062c565b5b600061075184828501610718565b91505092915050565b600081519050919050565b600082825260208201905092915050565b60005b83811015610794578082015181840152602081019050610779565b60008484015250505050565b6000601f19601f8301169050919050565b60006107bc8261075a565b6107c68185610765565b93506107d6818560208601610776565b6107df816107a0565b840191505092915050565b6000608082019050818103600083015261080481876107b1565b9050818103602083015261081881866107b1565b9050818103604083015261082c81856107b1565b9050818103606083015261084081846107b1565b905095945050505050565b600080fd5b600080fd5b7f4e487b7100000000000000000000000000000000000000000000000000000000600052604160045260246000fd5b61088d826107a0565b810181811067ffffffffffffffff821117156108ac576108ab610855565b5b80604052505050565b60006108bf610622565b90506108cb8282610884565b919050565b600067ffffffffffffffff8211156108eb576108ea610855565b5b6108f4826107a0565b9050602081019050919050565b82818337600083830152505050565b600061092361091e846108d0565b6108b5565b90508281526020810184848401111561093f5761093e610850565b5b61094a848285610901565b509392505050565b600082601f8301126109675761096661084b565b5b8135610977848260208601610910565b91505092915050565b600080600080600060a0868803121561099c5761099b61062c565b5b60006109aa88828901610657565b955050602086013567ffffffffffffffff8111156109cb576109ca610631565b5b6109d788828901610952565b945050604086013567ffffffffffffffff8111156109f8576109f7610631565b5b610a0488828901610952565b935050606086013567ffffffffffffffff811115610a2557610a24610631565b5b610a3188828901610952565b925050608086013567ffffffffffffffff811115610a5257610a51610631565b5b610a5e88828901610952565b9150509295509295909350565b7f4163636573732044656e69656400000000000000000000000000000000000000600082015250565b6000610aa1600d83610765565b9150610aac82610a6b565b602082019050919050565b60006020820190508181036000830152610ad081610a94565b9050919050565b7f4e487b7100000000000000000000000000000000000000000000000000000000600052602260045260246000fd5b60006002820490506001821680610b1e57607f821691505b602082108103610b3157610b30610ad7565b5b50919050565b7f436572746966696361746520616c726561647920697373756564000000000000600082015250565b6000610b6d601a83610765565b9150610b7882610b37565b602082019050919050565b60006020820190508181036000830152610b9c81610b60565b9050919050565b60008190508160005260206000209050919050565b60006020601f8301049050919050565b600082821b905092915050565b600060088302610c057fffffffffffffffffffffffffffffffffffffffffffffffffffffffffffffffff82610bc8565b610c0f8683610bc8565b95508019841693508086168417925050509392505050565b6000819050919050565b6000610c4c610c47610c4284610636565b610c27565b610636565b9050919050565b6000819050919050565b610c6683610c31565b610c7a610c7282610c53565b848454610bd5565b825550505050565b600090565b610c8f610c82565b610c9a818484610c5d565b505050565b5b81811015610cbe57610cb3600082610c87565b600181019050610ca0565b5050565b601f821115610d0357610cd481610ba3565b610cdd84610bb8565b81016020851015610cec578190505b610d00610cf885610bb8565b830182610c9f565b50505b505050565b600082821c905092915050565b6000610d2660001984600802610d08565b1980831691505092915050565b6000610d3f8383610d15565b9150826002028217905092915050565b610d588261075a565b67ffffffffffffffff811115610d7157610d70610855565b5b610d7b8254610b06565b610d86828285610cc2565b600060209050601f831160018114610db95760008415610da7578287015190505b610db18582610d33565b865550610e19565b601f198416610dc786610ba3565b60005b82811015610def57848901518255600182019150602085019450602081019050610dca565b86831015610e0c5784890151610e08601f891682610d15565b8355505b6001600288020188555050505b505050505050565b7f4e487b7100000000000000000000000000000000000000000000000000000000600052603260045260246000fd5b7f4e487b7100000000000000000000000000000000000000000000000000000000600052601160045260246000fd5b6000610e8a82610636565b91507fffffffffffffffffffffffffffffffffffffffffffffffffffffffffffffffff8203610ebc57610ebb610e50565b5b60018201905091905056fea2646970667358221220662b19dd2a7e664d4dbed1f994c496545c49fa8b4a8f5971ab44082745c9bf1e64736f6c63430008130033",
  "linkReferences": {},
  "deployedLinkReferences": {}
}