{
  "_format": "hh-sol-artifact-1",
  "contractName": "Cert",
  "sourceName": "contracts/Cert.sol",
  "abi": [
    {
      "inputs": [],
      "stateMutability": "nonpayable",
      "type": "constructor"
    },
    {
      "inputs": [
        {
          "internalType": "uint256",
          "name": "",
          "type": "uint256"
        }
      ],
      "name": "Certificates",
      "outputs": [
        {
          "internalType": "string",
          "name": "name",
          "type": "string"
        },
        {
          "internalType": "string",
          "name": "course",
          "type": "string"
        },
        {
          "internalType": "string",
          "name": "grade",
          "type": "string"
        },
        {
          "internalType": "string",
          "name": "date",
          "type": "string"
        }
      ],
      "stateMutability": "view",
      "type": "function"
    },
    {
      "inputs": [
        {
          "internalType": "uint256",
          "name": "",
          "type": "uint256"
        }
      ],
      "name": "CertificatesIssued",
      "outputs": [
        {
          "internalType": "bool",
          "name": "",
          "type": "bool"
        }
      ],
      "stateMutability": "view",
      "type": "function"
    },
    {
      "inputs": [
        {
          "internalType": "address",
          "name": "_admin",
          "type": "address"
        }
      ],
      "name": "addAdmin",
      "outputs": [],
      "stateMutability": "nonpayable",
      "type": "function"
    },
    {
      "inputs": [
        {
          "internalType": "uint256",
          "name": "_id",
          "type": "uint256"
        },
        {
          "internalType": "string",
          "name": "_name",
          "type": "string"
        },
        {
          "internalType": "string",
          "name": "_course",
          "type": "string"
        },
        {
          "internalType": "string",
          "name": "_grade",
          "type": "string"
        },
        {
          "internalType": "string",
          "name": "_date",
          "type": "string"
        }
      ],
      "name": "issue",
      "outputs": [],
      "stateMutability": "nonpayable",
      "type": "function"
    }
  ],
  "bytecode": "0x608060405234801561001057600080fd5b506000339080600181540180825580915050600190039060005260206000200160009091909190916101000a81548173ffffffffffffffffffffffffffffffffffffffff021916908373ffffffffffffffffffffffffffffffffffffffff160217905550610efe806100836000396000f3fe608060405234801561001057600080fd5b506004361061004c5760003560e01c80635bd3d4a01461005157806370480275146100815780639622c8361461009d578063d1e7be26146100d0575b600080fd5b61006b6004803603810190610066919061066d565b6100ec565b60405161007891906106b5565b60405180910390f35b61009b6004803603810190610096919061072e565b61010c565b005b6100b760048036038101906100b2919061066d565b6101ba565b6040516100c794939291906107eb565b60405180910390f35b6100ea60048036038101906100e59190610981565b61040a565b005b60026020528060005260406000206000915054906101000a900460ff1681565b61011533610575565b610154576040517f08c379a000000000000000000000000000000000000000000000000000000000815260040161014b90610ab8565b60405180910390fd5b6000819080600181540180825580915050600190039060005260206000200160009091909190916101000a81548173ffffffffffffffffffffffffffffffffffffffff021916908373ffffffffffffffffffffffffffffffffffffffff16021790555050565b60016020528060005260406000206000915090508060000180546101dd90610b07565b80601f016020809104026020016040519081016040528092919081815260200182805461020990610b07565b80156102565780601f1061022b57610100808354040283529160200191610256565b820191906000526020600020905b81548152906001019060200180831161023957829003601f168201915b50505050509080600101805461026b90610b07565b80601f016020809104026020016040519081016040528092919081815260200182805461029790610b07565b80156102e45780601f106102b9576101008083540402835291602001916102e4565b820191906000526020600020905b8154815290600101906020018083116102c757829003601f168201915b5050505050908060020180546102f990610b07565b80601f016020809104026020016040519081016040528092919081815260200182805461032590610b07565b80156103725780601f1061034757610100808354040283529160200191610372565b820191906000526020600020905b81548152906001019060200180831161035557829003601f168201915b50505050509080600301805461038790610b07565b80601f01602080910402602001604051908101604052809291908181526020018280546103b390610b07565b80156104005780601f106103d557610100808354040283529160200191610400565b820191906000526020600020905b8154815290600101906020018083116103e357829003601f168201915b5050505050905084565b61041333610575565b610452576040517f08c379a000000000000000000000000000000000000000000000000000000000815260040161044990610ab8565b60405180910390fd5b6002600086815260200190815260200160002060009054906101000a900460ff16156104b3576040517f08c379a00000000000000000000000000000000000000000000000000000000081526004016104aa90610b84565b60405180910390fd5b6040518060800160405280858152602001848152602001838152602001828152506001600087815260200190815260200160002060008201518160000190816104fc9190610d50565b5060208201518160010190816105129190610d50565b5060408201518160020190816105289190610d50565b50606082015181600301908161053e9190610d50565b5090505060016002600087815260200190815260200160002060006101000a81548160ff0219169083151502179055505050505050565b600080600090505b600080549050811015610618578273ffffffffffffffffffffffffffffffffffffffff16600082815481106105b5576105b4610e22565b5b9060005260206000200160009054906101000a900473ffffffffffffffffffffffffffffffffffffffff1673ffffffffffffffffffffffffffffffffffffffff160361060557600191505061061e565b808061061090610e80565b91505061057d565b50600090505b919050565b6000604051905090565b600080fd5b600080fd5b6000819050919050565b61064a81610637565b811461065557600080fd5b50565b60008135905061066781610641565b92915050565b6000602082840312156106835761068261062d565b5b600061069184828501610658565b91505092915050565b60008115159050919050565b6106af8161069a565b82525050565b60006020820190506106ca60008301846106a6565b92915050565b600073ffffffffffffffffffffffffffffffffffffffff82169050919050565b60006106fb826106d0565b9050919050565b61070b816106f0565b811461071657600080fd5b50565b60008135905061072881610702565b92915050565b6000602082840312156107445761074361062d565b5b600061075284828501610719565b91505092915050565b600081519050919050565b600082825260208201905092915050565b60005b8381101561079557808201518184015260208101905061077a565b60008484015250505050565b6000601f19601f8301169050919050565b60006107bd8261075b565b6107c78185610766565b93506107d7818560208601610777565b6107e0816107a1565b840191505092915050565b6000608082019050818103600083015261080581876107b2565b9050818103602083015261081981866107b2565b9050818103604083015261082d81856107b2565b9050818103606083015261084181846107b2565b905095945050505050565b600080fd5b600080fd5b7f4e487b7100000000000000000000000000000000000000000000000000000000600052604160045260246000fd5b61088e826107a1565b810181811067ffffffffffffffff821117156108ad576108ac610856565b5b80604052505050565b60006108c0610623565b90506108cc8282610885565b919050565b600067ffffffffffffffff8211156108ec576108eb610856565b5b6108f5826107a1565b9050602081019050919050565b82818337600083830152505050565b600061092461091f846108d1565b6108b6565b9050828152602081018484840111156109405761093f610851565b5b61094b848285610902565b509392505050565b600082601f8301126109685761096761084c565b5b8135610978848260208601610911565b91505092915050565b600080600080600060a0868803121561099d5761099c61062d565b5b60006109ab88828901610658565b955050602086013567ffffffffffffffff8111156109cc576109cb610632565b5b6109d888828901610953565b945050604086013567ffffffffffffffff8111156109f9576109f8610632565b5b610a0588828901610953565b935050606086013567ffffffffffffffff811115610a2657610a25610632565b5b610a3288828901610953565b925050608086013567ffffffffffffffff811115610a5357610a52610632565b5b610a5f88828901610953565b9150509295509295909350565b7f4163636573732044656e69656400000000000000000000000000000000000000600082015250565b6000610aa2600d83610766565b9150610aad82610a6c565b602082019050919050565b60006020820190508181036000830152610ad181610a95565b9050919050565b7f4e487b7100000000000000000000000000000000000000000000000000000000600052602260045260246000fd5b60006002820490506001821680610b1f57607f821691505b602082108103610b3257610b31610ad8565b5b50919050565b7f436572746966696361746520616c726561647920697373756564000000000000600082015250565b6000610b6e601a83610766565b9150610b7982610b38565b602082019050919050565b60006020820190508181036000830152610b9d81610b61565b9050919050565b60008190508160005260206000209050919050565b60006020601f8301049050919050565b600082821b905092915050565b600060088302610c067fffffffffffffffffffffffffffffffffffffffffffffffffffffffffffffffff82610bc9565b610c108683610bc9565b95508019841693508086168417925050509392505050565b6000819050919050565b6000610c4d610c48610c4384610637565b610c28565b610637565b9050919050565b6000819050919050565b610c6783610c32565b610c7b610c7382610c54565b848454610bd6565b825550505050565b600090565b610c90610c83565b610c9b818484610c5e565b505050565b5b81811015610cbf57610cb4600082610c88565b600181019050610ca1565b5050565b601f821115610d0457610cd581610ba4565b610cde84610bb9565b81016020851015610ced578190505b610d01610cf985610bb9565b830182610ca0565b50505b505050565b600082821c905092915050565b6000610d2760001984600802610d09565b1980831691505092915050565b6000610d408383610d16565b9150826002028217905092915050565b610d598261075b565b67ffffffffffffffff811115610d7257610d71610856565b5b610d7c8254610b07565b610d87828285610cc3565b600060209050601f831160018114610dba5760008415610da8578287015190505b610db28582610d34565b865550610e1a565b601f198416610dc886610ba4565b60005b82811015610df057848901518255600182019150602085019450602081019050610dcb565b86831015610e0d5784890151610e09601f891682610d16565b8355505b6001600288020188555050505b505050505050565b7f4e487b7100000000000000000000000000000000000000000000000000000000600052603260045260246000fd5b7f4e487b7100000000000000000000000000000000000000000000000000000000600052601160045260246000fd5b6000610e8b82610637565b91507fffffffffffffffffffffffffffffffffffffffffffffffffffffffffffffffff8203610ebd57610ebc610e51565b5b60018201905091905056fea264697066735822122034da5a7b0583929e4463e768eb845e227d10b2bdd18e0a16a4b61bb40a1852a664736f6c63430008130033",
  "linkReferences": {},
  "deployedLinkReferences": {}
}